:1000000080315028080001347E14803120007F08A0
:10001000A4002100901E13282000901E13288A316E
:10002000BC2280314B280B1F1F282100111E1F28C6
:100030002000111E1F288C319B2480314B280B1F60
:100040002B282100911E2B282000911E2B288C315B
:10005000632480314B280B1F37282100131E3728BB
:100060002000131E37288B31A82380314B280B1F0B
:1000700043282100141C43282000141C43288B31E2
:10008000BC2380314B282100101E4B282000101E5D
:100090004B288B310A2320002408FF007E10090022
:1000A00080315228803103208031EA008B30840077
:1000B000213085006530FE000030FF008B311623B3
:1000C000803151308400003085001930FE0000304E
:1000D000FF008B3116238031A03084000030850072
:1000E0004F30FE000030FF008B311623803120306E
:1000F0008400013085003A30FE000030FF008B3173
:1001000016238031A0308400013085002030FE00AD
:100110000030FF008B3116237E1020008431E12C4B
:1001200020005E08FF3EA03E860087010108B20065
:10013000B3015E08FE3EA03E860087010108B400C0
:10014000B5013408B500B40132083404B7003308EF
:100150003504B8005E08FE3E8E3133268031200023
:1001600038082606031DB628370825060319BF28B8
:1001700001302200D6070030D73DFF3008002000B4
:10018000B901BA0108303A020318DF283A08FD3EE7
:10019000840087300318013E8500000821002106F5
:1001A000031DD6282000B901B90ADF28013020003C
:1001B000B2003208BA0708303A02031CC6283908D0
:1001C000031DE92801302200D6070030D73D013059
:1001D00008002000BC01BD0188292100230820005F
:1001E000B2003208A500210022088B31962380310D
:1001F0002000250E0F39BC00260EF039BC04260E57
:100200000F39BD00210025082000B2003208A500EA
:10021000210024088B319623803120002508B3006B
:100220002608B4000430B436B30C890B1329330804
:10023000BC073408BD3D3C08B2003208BB003B0897
:100240005B020318A32902300800210023082000C4
:10025000B2003208A500210022088B31962380319C
:100260002000250E0F39BC00260EF039BC04260EE6
:100270000F39BD003C08B2003208BB003B085B02EE
:100280000318A32902300800210023082000B2002F
:100290003208A500210022088B31962380312000EE
:1002A0002608BD002508BC003C08B2003208BB008F
:1002B0003B085B020318A329023008002100230831
:1002C0002000B2003208A500210022088B319623BD
:1002D000803120002608BD002508BC00210025082B
:1002E0002000B2003208A500210024088B3196239B
:1002F000803120002508BC072608BD3D3C08B2001F
:100300003208BB003B085B020318A3290230080037
:1003100021002108013A0319ED28033A0319ED28B9
:10032000013A03195E29073A03195E29013A0319B4
:100330002529033A03194429093A0319ED281F3ADC
:1003400003195E29A329003008002200E10061089A
:100350002000CD004D08DC004C08CD004D08DB002E
:100360008A31A92281312000CD004D082200DF0012
:100370005F08031908005F0820005D060319DD29E6
:1003800022005F082000CD004D08DD008B31852361
:100390003230200025072100C00000302000263D1B
:1003A0002100C10000302000273D2100C2000030A4
:1003B0002000283D2100C30008008B3185238131B6
:1003C0002100430820002802031DF62921004208CD
:1003D00020002702031DF6292100410820002602E3
:1003E000031DF6292100400820002502031C0800F7
:1003F000DD018D31412581312000CD004D082200E5
:10040000DE005E082000CD004D082100DC00220047
:100410005E08803A793E031C080021002008200075
:100420006006031D08008031902081312000CD003E
:100430004D082200E000600803192F2A600A031902
:10044000272A60088C31B924813185317725220033
:1004500060082000CD004D082100DC0008002100CC
:100460004C082000CD0021004D082000CE00CF0117
:10047000D0018B318523813120002508CD07260846
:10048000CE3D2708CF3D2808D03D50082200D1009E
:1004900020004F082200D00020004E082200CF008C
:1004A00020004D082200CE002100DC01932A20000C
:1004B0004C08CD004D08B900220061088231AF22FE
:1004C000080020004C08CD004D08B900220061084A
:1004D00086317726080020004C08CD004D08B90071
:1004E000220061088F319B27080020004C08CD00B6
:1004F0004D08B900220061088D31A72508002000B1
:100500004C08CD004D08B900220061088431382420
:10051000080020004C08CD004D08B90022006108F9
:100520008E318626080021002108013A0319572A36
:10053000033A0319572A013A0319612A073A0319A2
:10054000612A013A03196B2A033A0319752A093AF9
:1005500003197F2A1F3A0319892AAE2A08002000AE
:10056000BD00C101C201C901CA0121002308200048
:10057000BA003A08A500210022088B319623823167
:1005800020002608C2002508C100210025082000FF
:10059000BA003A08A500210024088B319623823145
:1005A00020002608CA002508C9004A08BB004908DF
:1005B000BA00BB36BA0CBB36BA0CBB36BA0C3A081A
:1005C000BC003C08C30007304905BA0000304A05AA
:1005D000BB003A083B040319F12A0130BA003A087B
:1005E000C3074308BA003A082100A20003302000E4
:1005F000BA003A08DE00C801C601C7014A0847022E
:10060000031D042B490846020318622B46084107C4
:10061000C4004708423DC5004508BB004408BA0075
:100620000430BB36BA0C890B112B3A08BC003C08CD
:10063000BE0044080F39BA003A08BF003E353D07F6
:10064000BA003A0886008701403FBB00413FBC002A
:100650003F0A2C2BBC36BB0C890B2A2B3B1C402B96
:100660000130BA00480A352BBA35890B342B3A08C9
:10067000BB005E08A03E860087013B088104502B2A
:100680000130BA00480A452BBA35890B442B3A0889
:10069000FF3ABB005E08A03E860087013B0881054B
:1006A0000130BA003A08C80708304802031C5D2B25
:1006B000C8010130BA003A08DE070130C607003031
:1006C000C73DFE2A07304905BA0000304A05BB0085
:1006D0003A083B040319702B0130BA003A08DE07D0
:1006E0005E08023EBA003A08C00085317725200036
:1006F000400808008A319D22833122000E1121001A
:1007000063036404031D0800200056085802031DFB
:100710008B2B55085702031C9B2B5509A00056092B
:10072000A100A00A0319A10A570820072100DF0031
:1007300020005808A92B20005709A0005809A10043
:10074000A00A0319A10A550820072100DF00200094
:100750005608213D2100E0000030F3000030F20097
:100760000330F100E830F0004B08F7004A08F600CB
:100770004908F5004808F4008D31E12583317108FE
:100780002100E2007008E100200057085804031916
:10079000CC2B2100E501E60100302100CB00003028
:1007A000CA000030C9000030C8002000D701D801BD
:1007B000D501D60122008E100E110E100A30DF3E38
:1007C00086008701210067092000A0002100680938
:1007D0002000A100A00A0319A10A403F2007A2009F
:1007E000413F213DA3002100600820002302031D9A
:1007F000FD2B21005F08200022020318282C08305E
:10080000DF3E860087010A30DF3E84008501403FDD
:100810000007A0000131413F003DA1002108210057
:100820006002031D172C2000200821005F0203181E
:10083000282C0230E3000030E400F801F80A05300B
:100840002000A0002008F90001308F313627080071
:1008500003302100E3000030E400F801F80A05301D
:100860002000A0002008F90000308F313627080052
:100870002000C600210023082000BA003A08A50085
:10088000210022088B319623843120002608BE00E7
:100890002508BD00210025082000BA003A08A5005F
:1008A000210024088B319623843120002608C000C3
:1008B0002508BF00CB010730BA003A08C300C901C0
:1008C000CA0140084A02031D672C3F084902031869
:1008D000D32C49083D07C4004A083E3DC5004508E1
:1008E000BB004408BA000430BB36BA0C890B742C28
:1008F0003A08BC003C08C70044080F39BA003A085F
:10090000C8004308A03E860087010108BA004B0AD0
:100910008A2CBA36890B892C3A080139BB003B086E
:10092000C20042080319AA2C0130BA000030BB00F3
:10093000480A9C2CBA35BB0D890B9A2C47354607C3
:10094000BC003C08860087013A08810441313B081D
:100950008104C12C0130BA000030BB00480AB22C1F
:10096000BA35BB0D890BB02CBA09BB094735460710
:10097000BC003C08860087013A08810541313B08EC
:1009800081050130BA003A08CB0708304B02031C3E
:10099000CE2CCB010130BA003A08C3070130C90799
:1009A0000030CA3D612C0630BA003A08DE005E080D
:1009B000023EBA003A08C10085317725200041087F
:1009C00008008B31D123843100302000A500A6001F
:1009D0008B31FC2384318A31B5228431FF302700EA
:1009E0008E00FF308C008B170B172000AD01AD0A75
:1009F000AE01AE0A00308731622784318A31A322EA
:100A00008431003A031DFE2C2000AD01AD0AAE0179
:100A1000AE0A01308731622784318A31A3228431C2
:100A2000003A031D0D2D2000AD01AD0AAE01AE0A46
:100A300002308731622784318A31A3228431003A1F
:100A4000031D1C2D22000D13C001C00A033021001C
:100A5000EF006F082200C100C201C3010430C400CE
:100A60000030C500E7302100EF006F082200C6000B
:100A7000C701C70A10302100EF006F082200C8002C
:100A80000430C9000030CA000430CB000030CC0074
:100A9000DF302100EF006F082200CD0001308C31E3
:100AA000F924843122000D130E132100E301E40127
:100AB000DF01E001E101E201E501E6012030E700AC
:100AC0000030E800ED01EE016030E9000030EA009E
:100AD000B830EB000B30EC0008302100EF006F085D
:100AE0002000CC00DF308131A52184316C2D200025
:100AF000B80191122100911222000D1720005E080A
:100B00008E313326853120002608B7002508B6002F
:100B10003708B2005E08A03E8600870132088100D7
:100B20000130B2003208DE073608B2005E08A03E8F
:100B300086008701320881000130B2003208DE07EA
:100B400060080319AF2D0D30B2005E08A03E86008C
:100B50008701320881000130B2003208DE07B80197
:100B60005E0838020318C22D3808A03E86008701AF
:100B700001088A31F622853101302000B2003208A6
:100B8000B807B02DDE0121004C082000B200210082
:100B90004D082000B300B401B5018B3185238531A8
:100BA00020002508B2072608B33D2708B43D2808D1
:100BB000B53D35082200D100200034082200D000C5
:100BC000200033082200CF00200032082200CE008F
:100BD0000130D8070030D93D200060080319080013
:100BE00091122100911622000D138B314A23080027
:100BF00022000E158A319D2285318A31EC22853101
:100C000071082100D7007008D6000030F000F10014
:100C10008B31582385318A319A22853120000E0E7E
:100C20000139F6000130F635890B132E0E0E890CB2
:100C3000013976070339F7007708E3000030210017
:100C40005702063003195602031C08005608C8074D
:100C50005708C93D0030CA3DCB3D20006308031949
:100C6000352E03306306031D3A2E0130D7070030BE
:100C7000D83D452E63030319412E02306306031D40
:100C8000452E0130D5070030D63D210063036404B2
:100C900003196D2EDF01E001E101E2012000560899
:100CA0005802031D552E55085702031C5B2E2100C8
:100CB000E501E601602E01302100E5000030E6008C
:100CC0000030CB000030CA000030C9000030C8003E
:100CD0002000D701D801D501D60101302100E30061
:100CE0000030E4004908E2004808E1000800200064
:100CF000BF00210023082000BA003A08A500210007
:100D000022088B319623863120002508BB003B0842
:100D1000C000210025082000BA003A08A5002100E3
:100D200024088B319623863120002508BB003B0820
:100D3000C1004135BA003A082100A200033020006A
:100D4000BA003A08DE004008BA003A08C20040087B
:100D50004107BA00BB01BB0D3B08803A803C031D34
:100D6000B32E3A0842020318E32E200042353F0713
:100D7000BA003A0886008701403FBB00413FBC00F3
:100D80003C08BD005E08A03E860087013D0881004A
:100D90000130BA003A08DE0742353F07BA003A0888
:100DA000860087010108BB005E08A03E860087011F
:100DB0003B0881000130BA003A08DE070130BA0072
:100DC0003A08C207A72E20005E08023EBA003A0881
:100DD000BE008531772520003E0808002000610311
:100DE000031D0800210051085302031DF92E50086D
:100DF00052020318202F362F031022000E1C03145A
:100E0000031C052F22000E142C2F22000E102C2F55
:100E1000031022008E1C0314031C112F22008E14B9
:100E20002C2F22008E102C2F031022000E1D0314D5
:100E3000031C1D2F22000E152C2F22000E112C2F0B
:100E400020006A08003A0319FC2E013A0319082F02
:100E5000033A0319142F2C2F2000530821005007A8
:100E6000D000200054082100513DD100530820003B
:100E70005202031D3F2F2100520820005102031C83
:100E80004B2F5C2F22000E10572F22008E10572F51
:100E900022000E11572F20006A08003A0319422F32
:100EA000013A0319452F033A0319482F572F200001
:100EB000E1012100D201D3010A302100D207003024
:100EC000D33D08002000B1006103031908002D087C
:100ED000031908003D302D0203180800E101E10A62
:100EE0003108AF002F08EA007E2F22000E148A2F4F
:100EF00022008E148A2F22000E158A2F20006A08E5
:100F0000003A0319752F013A0319782F033A031990
:100F10007B2F8A2F2100D201D30120002D08AF00A2
:100F2000B0012F08A5003008A600E830A700033064
:100F3000A8008C317F24873120002608D2002508A4
:100F4000D10002302E02031CBC2F2E08AF00B001CE
:100F5000AF35B00D2F08FF3EA500FF30303DA60095
:100F60005208A8005108A7008731C8278731200000
:100F70002608D4002508BF2F5208D4005108D300FA
:100F800054082100D100200053082100D00008009F
:100F90002000AA01AB01250826040319F82FAC0193
:100FA000AC0AA61BDD2F0130A535A60D890BD42F69
:100FB0000130A9002908AC07D12F0130AA35AB0DAB
:100FC000890BDE2F26082802031DE82F250827029B
:100FD000031CEF2F2508A7022608A83B2A1401307E
:100FE000A636A50C890BF02F0130AC02031DDD2FB6
:100FF0002B08A6002A08A500080001340234033497
:0A1000000434053406340F341034B4
:1015300008000800280013140800280013100800F1
:1015400083317A2308002000610808008C311324BD
:1015500008002000640808008C31D924080020000D
:10156000971708002800131408002800131008001B
:101570001630210097000800200090128B313C2388
:1015800008007B08F9007A08F8008B31672308000F
:10159000200026082200DD00200025082200DC00B3
:1015A0000800200026082200DB0020002508220079
:1015B000DA000800200026082100D90020002508B4
:1015C0002100D8000800200026082100DB002000B0
:1015D00025082100DA00080028001208F30011088D
:1015E000F2007308F1007208F00008002000A50066
:1015F0001112250823009A002000111A0800FC2A65
:10160000320099019B019D0106309F009E011C182C
:101610000800072B2700191E102B8B3122238B313A
:101620002700991E08008B312F23080064008001D9
:1016300001310130FE020030FF3B7F087E040319B8
:101640000034172B22005C085D0403192C2B5D0865
:101650008A005C080A008B3127001912080022005A
:101660005A085B040319392B5B088A005A080A00E0
:101670008B312700991208008D311B258B312100F9
:10168000580859040319080059088A0058080A0024
:101690008B310800200064080319562B8C31D924A3
:1016A0008B312000A7002708A8004A2BE40108007E
:1016B0002800131D622B131071089200700891000E
:1016C00013140800710892007008910008002200AD
:1016D0008E15210014107908F5007808F400853182
:1016E000F8252100141422008E11080083302500F3
:1016F00093009401920191011F08FC3902389F0068
:1017000020001410210014140800210047082000B4
:10171000A800210046082000A7002100450820005D
:10172000A600210044082000A50008002000AC000D
:101730002508A700A8012C08A900AA012908AA00C9
:10174000A90127082907A50028082A3DA6000800A6
:10175000200013125A08280092002000590828007F
:10176000910021005A085B04031908005B088A00F5
:101770005A080A008B3108002000141025001108B7
:10178000FC007C082000A00025001208FC007C085A
:101790002000A1002108FB002008FA008A31C122A4
:1017A00008008E31DD268B318B3100238B318A315D
:1017B000B8228B318B3176238B318C3148248B319D
:1017C0008B31E6238B318C31132408000730200045
:1017D000970048309800263096009501901221001D
:1017E000901602302000A5000030A6008A31DA22CF
:1017F0008B318A31AF2208002800131D0A2C1310E8
:1018000020002608280092002000250828009100CA
:101810001314080020002608280092002000250844
:1018200028009100080021009112111208302300B5
:101830009F0090309D0024309E0044309B009C010E
:101840002000E901E8012030A5002508E700E601B5
:10185000E501E401210091160800F401F501701C76
:10186000352C7208F4077308F53D0130F235F30D9D
:10187000890B362C0130F136F00C890B3B2C7008AB
:101880007104031D2F2C7508F1007408F000080086
:101890003030280093009401920191011208200039
:1018A000DA00280011082000D900131221001316B5
:1018B000A0302000A5000A30A6008A31E3228C3136
:1018C0008A31B222080023009D1C682C1D121D16AF
:1018D0001908F00020006608A03E8600013087004D
:1018E000700881000130F0007008E60720306602C1
:1018F0000318E6010130F0007008E407080020003A
:10190000A901AA01251C882C2708A9072808AA3D97
:101910000130A735A80D890B892C0130A636A50CFE
:10192000890B8E2C25082604031D822C2A08A6006C
:101930002908A50008002030200067020318B62CF3
:101940006808203E860001308700010823009A00C5
:101950000130F00070082000E8072030680203180A
:10196000E8010130F0007008E707080021001112BB
:1019700008002000A600210021082000A50025085D
:10198000A7006008A50025082100A0002000270866
:10199000803EA50025082100A10020002608A50002
:1019A00025082100A20003302000A5002508DE0044
:1019B00008002000A60164080319DB2C6508A03E7E
:1019C0008600013087000108A5002508A600013027
:1019D000A5002508E507203065020318E501210070
:1019E000911201302000E402210091162000260807
:1019F00008002000AB002B08AA002A08E000E8300D
:101A00002100CC000330CD0000302000A9000130BF
:101A1000A800C230A7000030A6008A31A62220000C
:101A2000DE01DD012200D601D701D801D901210054
:101A3000CE01CF0108008631EE268D310A30F0004C
:101A40000030F1000030F2000030F30021004408C3
:101A5000F0074508F13D4608F23D4708F33D73089D
:101A6000C7007208C6007108C5007008C4002000D5
:101A70006203031D08000A302100D4070030D53D61
:101A800008002000A801DE018A31A9228D31003A28
:101A90000319602D8A31AC228D312000A7005E0829
:101AA000A03E86008701270881000130A700270893
:101AB000DE0720305E02031C442DA801A80A442D35
:101AC00001302100CE070030CF3D20002808031947
:101AD000702D01302200D6070030D73DFD300800C0
:101AE00020005E080800F501F60170087104031972
:101AF000A22DF701F70AF11B872D0130F035F10D0A
:101B0000890B7E2D0130F4007408F7077B2D01301E
:101B1000F535F60D890B882D71087302031D922D82
:101B200070087202031C992D7008F2027108F33BD1
:101B300075140130F136F00C890B9A2D0130F70243
:101B4000031D872D7608F1007508F00008002000BD
:101B5000BE00210023082000BA003A08A500210099
:101B600022088B3196238D3120002508BB003B08CD
:101B7000BF00210025082000BA003A08A500210076
:101B800024088B3196238D3120002608BD002508BE
:101B9000BC003F353E07BA003A08860087013C0882
:101BA000C03F3D08C13F0630BA003A08DE005E087B
:101BB000023EBA003A08C00085317725200040086F
:101BC00008000030FC000030FB000030FA0000305C
:101BD000F900730872047104700403192A2EFD01C0
:101BE000FD0AF31BFF2D0130F035F10DF20DF30D61
:101BF000890BF42D0130F8007808FD07F12D013034
:101C0000F935FA0DFB0DFC0D890B002E73087702D8
:101C1000031D142E72087602031D142E710875021E
:101C2000031D142E70087402031C1F2E7008F4028A
:101C30007108F53B7208F63B7308F73B79140130E5
:101C4000F336F20CF10CF00C890B202E0130FD0262
:101C5000031DFF2D7C08F3007B08F2007A08F100D9
:101C60007908F00008002000A900FF30B000FF3024
:101C7000B100AE0129082E0203186D2E2E08A03ED9
:101C80008600870130080106B0003108B100AF01BD
:101C9000AF0A09302F020318682E01303005AC005E
:101CA00000303105AD000130B136B00C890B542E37
:101CB0002C082D040319602E0130B006A030B106A7
:101CC0000130A7002708AF0709302F02031C4D2E53
:101CD0000130A7002708AE073A2E3108A8003008C7
:101CE000A7002808A700A8012708AA002808AB0019
:101CF0003008A800A7012A082704B0002B082804F0
:101D0000B1003108A6003008A50008002000BF007F
:101D1000210021082000BA003A08BC002100230855
:101D20002000BA003A08C000210025082000BA00AF
:101D30003A08C2002100A40120004208BA003A0873
:101D40002100A50006302000BA003A08DE00C301D9
:101D5000420843020318D32E4335A83E860087016C
:101D60000108BA003A08A5004335A73E860087015E
:101D700001088B3196238E3120002608BE002508ED
:101D8000BD0040353F07BA0043353A07BB003B086A
:101D9000860087013D08C03F3E08C13F0130BA00C0
:101DA0003A08C307A82E5E08023EBA003A08C100EE
:101DB0008531772520004108080022008C018D0123
:101DC0008E01373021008C0090308D0030308E0035
:101DD000803023008E008D0137308C00803024004D
:101DE0008D008C018E0125008C018D018E01270054
:101DF000191299121816981617169716983020006F
:101E0000A5000A30A6008A31C8228E319930200000
:101E1000A5000A30A6008A31D1228E312100101689
:101E200000308B1B01302000A7008B1355303C0085
:101E30008F00AA308F000F102408E0390C38A4005E
:101E40001408E039153894003D001D08E0391438B5
:101E50009D0055303C008F00AA308F000F142000E9
:101E6000271C342F8B1708008B130800FC00200060
:101E70006103031908007808031908003D3078024F
:101E800003180800E101E10A7C08FA007A08EA0078
:101E9000522F22000E145E2F22008E145E2F22007D
:101EA0000E155E2F20006A08003A0319492F013AE7
:101EB00003194C2F033A03194F2F5E2F2100D20133
:101EC000D3017808FA00FB017A08F0007B08F100E2
:101ED000E830F2000330F3008C312D248F3171088B
:101EE0002000D2007008D10002307902031C8F2F2D
:101EF0007908FA00FB01FA35FB0D7A08FF3EF00085
:101F0000FF307B3DF1005208F3005108F2008D31A3
:101F100073258F3171082000D4007008922F520869
:101F2000D4005108D30054082100D10020005308E8
:101F30002100D00008002000C0002100230820005C
:101F4000BA003A08A500210022088B3196238F3170
:101F500020002608BF002508BE003F08BB003E0841
:101F6000BA000430BB36BA0C890BB22F3A08BC0059
:101F70003C08C1003E080F39BA003A08C2002100EF
:101F8000240A031DDA2F01302000BA000030BB0004
:101F9000420ACC2FBA35BB0D890BCA2F41354007F9
:101FA000BC003C08860087013A08810441313B08A7
:101FB0008104F22F01302000BA000030BB00420A39
:101FC000E32FBA35BB0D890BE12FBA09BB094135A7
:101FD0004007BC003C08860087013A088105413172
:101FE0003B0881050630BA003A08DE005E08023E72
:101FF000BA003A08BD008531772520003D08080069
:020000040001F9
:08000E008CFFF3FFFFFFFFFF71
:00000001FF
